17:06:04.130761 IP (tos 0x0, ttl 128, id 12585, offset 0, flags [none], proto UDP (17), length 61)
    10.97.0.1.29712 > 10.97.0.200.53: [udp sum ok] 50636+ A? mbgqrpzkuht.biz. (33)
	0x0000:  0050 56e7 453e 000c 2981 1df7 0800 4500  .PV.E>..).....E.
	0x0010:  003d 3129 0000 8011 ab93 0a61 0001 0a61  .=1).......a...a
	0x0020:  00c8 7410 0035 0029 ee76 c5cc 0100 0001  ..t..5.).v......
	0x0030:  0000 0000 0000 0e6d 6267 7172 707a 6b75  .......mbgqrpzku
	0x0040:  6874 2e62 697a 0000 0100 01              ht.biz.....
